{
  "_format": "hh-sol-artifact-1",
  "contractName": "CrowdFunding",
  "sourceName": "contracts/CrowdFunding.sol",
  "abi": [
    {
      "inputs": [],
      "stateMutability": "nonpayable",
      "type": "constructor"
    },
    {
      "inputs": [
        {
          "internalType": "uint256",
          "name": "_campaignID",
          "type": "uint256"
        }
      ],
      "name": "GetDonators",
      "outputs": [
        {
          "internalType": "address[]",
          "name": "",
          "type": "address[]"
        },
        {
          "internalType": "uint256[]",
          "name": "",
          "type": "uint256[]"
        }
      ],
      "stateMutability": "view",
      "type": "function"
    },
    {
      "inputs": [],
      "name": "campaignCount",
      "outputs": [
        {
          "internalType": "uint256",
          "name": "",
          "type": "uint256"
        }
      ],
      "stateMutability": "view",
      "type": "function"
    },
    {
      "inputs": [
        {
          "internalType": "uint256",
          "name": "",
          "type": "uint256"
        }
      ],
      "name": "campaignList",
      "outputs": [
        {
          "internalType": "address",
          "name": "owner",
          "type": "address"
        },
        {
          "internalType": "string",
          "name": "title",
          "type": "string"
        },
        {
          "internalType": "string",
          "name": "description",
          "type": "string"
        },
        {
          "internalType": "uint256",
          "name": "target",
          "type": "uint256"
        },
        {
          "internalType": "uint256",
          "name": "deadline",
          "type": "uint256"
        },
        {
          "internalType": "uint256",
          "name": "amountCollected",
          "type": "uint256"
        },
        {
          "internalType": "string",
          "name": "imageURL",
          "type": "string"
        }
      ],
      "stateMutability": "view",
      "type": "function"
    },
    {
      "inputs": [
        {
          "internalType": "address",
          "name": "_owner",
          "type": "address"
        },
        {
          "internalType": "string",
          "name": "_title",
          "type": "string"
        },
        {
          "internalType": "string",
          "name": "_description",
          "type": "string"
        },
        {
          "internalType": "uint256",
          "name": "_target",
          "type": "uint256"
        },
        {
          "internalType": "uint256",
          "name": "_deadline",
          "type": "uint256"
        },
        {
          "internalType": "string",
          "name": "_imageURL",
          "type": "string"
        }
      ],
      "name": "createCampaign",
      "outputs": [
        {
          "internalType": "uint256",
          "name": "",
          "type": "uint256"
        }
      ],
      "stateMutability": "nonpayable",
      "type": "function"
    },
    {
      "inputs": [
        {
          "internalType": "uint256",
          "name": "_campaignID",
          "type": "uint256"
        }
      ],
      "name": "donateToCampaign",
      "outputs": [],
      "stateMutability": "payable",
      "type": "function"
    },
    {
      "inputs": [],
      "name": "getCampaigns",
      "outputs": [
        {
          "components": [
            {
              "internalType": "address",
              "name": "owner",
              "type": "address"
            },
            {
              "internalType": "string",
              "name": "title",
              "type": "string"
            },
            {
              "internalType": "string",
              "name": "description",
              "type": "string"
            },
            {
              "internalType": "uint256",
              "name": "target",
              "type": "uint256"
            },
            {
              "internalType": "uint256",
              "name": "deadline",
              "type": "uint256"
            },
            {
              "internalType": "uint256",
              "name": "amountCollected",
              "type": "uint256"
            },
            {
              "internalType": "string",
              "name": "imageURL",
              "type": "string"
            },
            {
              "internalType": "address[]",
              "name": "donors",
              "type": "address[]"
            },
            {
              "internalType": "uint256[]",
              "name": "donations",
              "type": "uint256[]"
            }
          ],
          "internalType": "struct CrowdFunding.Campaign[]",
          "name": "",
          "type": "tuple[]"
        }
      ],
      "stateMutability": "view",
      "type": "function"
    }
  ],
  "bytecode": "0x608060405234801561001057600080fd5b5060008055611041806100246000396000f3fe6080604052600436106100555760003560e01c806342a4fda81461005a5780634912c6581461006f5780637274e30d146100ab5780639943e3a1146100cf578063a6b03633146100ef578063e8457f7614610111575b600080fd5b61006d610068366004610b53565b61013f565b005b34801561007b57600080fd5b5061008f61008a366004610b53565b6101a8565b6040516100a29796959493929190610bb9565b60405180910390f35b3480156100b757600080fd5b506100c160005481565b6040519081526020016100a2565b3480156100db57600080fd5b506100c16100ea366004610cc6565b610386565b3480156100fb57600080fd5b50610104610436565b6040516100a29190610df3565b34801561011d57600080fd5b5061013161012c366004610b53565b6107e2565b6040516100a2929190610f00565b600081815260016020526040812060058101805491923492610162908490610f76565b9091555050600781018054600181810183556000928352602080842090920180546001600160a01b03191633179055600890930180549384018155825290203491015550565b6001602081905260009182526040909120805491810180546001600160a01b03909316926101d590610f8e565b80601f016020809104026020016040519081016040528092919081815260200182805461020190610f8e565b801561024e5780601f106102235761010080835404028352916020019161024e565b820191906000526020600020905b81548152906001019060200180831161023157829003601f168201915b50505050509080600201805461026390610f8e565b80601f016020809104026020016040519081016040528092919081815260200182805461028f90610f8e565b80156102dc5780601f106102b1576101008083540402835291602001916102dc565b820191906000526020600020905b8154815290600101906020018083116102bf57829003601f168201915b50505050509080600301549080600401549080600501549080600601805461030390610f8e565b80601f016020809104026020016040519081016040528092919081815260200182805461032f90610f8e565b801561037c5780601f106103515761010080835404028352916020019161037c565b820191906000526020600020905b81548152906001019060200180831161035f57829003601f168201915b5050505050905087565b600080548152600160208181526040832080546001600160a01b0319166001600160a01b038b16178155885190926103c59290840191908a0190610aba565b5085516103db9060028301906020890190610aba565b5060038101859055600481018490556000600582015582516104069060068301906020860190610aba565b5060008054908061041683610fc3565b9190505550600160005461042a9190610fde565b98975050505050505050565b60606000805467ffffffffffffffff81111561045457610454610c23565b6040519080825280602002602001820160405280156104dd57816020015b6104ca60405180610120016040528060006001600160a01b0316815260200160608152602001606081526020016000815260200160008152602001600081526020016060815260200160608152602001606081525090565b8152602001906001900390816104725790505b50905060005b6000548110156107dc576000818152600160208181526040928390208351610120810190945280546001600160a01b03168452918201805492939284928401919061052d90610f8e565b80601f016020809104026020016040519081016040528092919081815260200182805461055990610f8e565b80156105a65780601f1061057b576101008083540402835291602001916105a6565b820191906000526020600020905b81548152906001019060200180831161058957829003601f168201915b505050505081526020016002820180546105bf90610f8e565b80601f01602080910402602001604051908101604052809291908181526020018280546105eb90610f8e565b80156106385780601f1061060d57610100808354040283529160200191610638565b820191906000526020600020905b81548152906001019060200180831161061b57829003601f168201915b5050505050815260200160038201548152602001600482015481526020016005820154815260200160068201805461066f90610f8e565b80601f016020809104026020016040519081016040528092919081815260200182805461069b90610f8e565b80156106e85780601f106106bd576101008083540402835291602001916106e8565b820191906000526020600020905b8154815290600101906020018083116106cb57829003601f168201915b505050505081526020016007820180548060200260200160405190810160405280929190818152602001828054801561074a57602002820191906000526020600020905b81546001600160a01b0316815260019091019060200180831161072c575b50505050508152602001600882018054806020026020016040519081016040528092919081815260200182805480156107a257602002820191906000526020600020905b81548152602001906001019080831161078e575b5050505050815250508383815181106107bd576107bd610ff5565b60200260200101819052505080806107d490610fc3565b9150506104e3565b50919050565b60008181526001602081815260408084208151610120810190925280546001600160a01b0316825292830180546060958695909490929084019161082590610f8e565b80601f016020809104026020016040519081016040528092919081815260200182805461085190610f8e565b801561089e5780601f106108735761010080835404028352916020019161089e565b820191906000526020600020905b81548152906001019060200180831161088157829003601f168201915b505050505081526020016002820180546108b790610f8e565b80601f01602080910402602001604051908101604052809291908181526020018280546108e390610f8e565b80156109305780601f1061090557610100808354040283529160200191610930565b820191906000526020600020905b81548152906001019060200180831161091357829003601f168201915b5050505050815260200160038201548152602001600482015481526020016005820154815260200160068201805461096790610f8e565b80601f016020809104026020016040519081016040528092919081815260200182805461099390610f8e565b80156109e05780601f106109b5576101008083540402835291602001916109e0565b820191906000526020600020905b8154815290600101906020018083116109c357829003601f168201915b5050505050815260200160078201805480602002602001604051908101604052809291908181526020018280548015610a4257602002820191906000526020600020905b81546001600160a01b03168152600190910190602001808311610a24575b5050505050815260200160088201805480602002602001604051908101604052809291908181526020018280548015610a9a57602002820191906000526020600020905b815481526020019060010190808311610a86575b50505050508152505090508060e001518161010001519250925050915091565b828054610ac690610f8e565b90600052602060002090601f016020900481019282610ae85760008555610b2e565b82601f10610b0157805160ff1916838001178555610b2e565b82800160010185558215610b2e579182015b82811115610b2e578251825591602001919060010190610b13565b50610b3a929150610b3e565b5090565b5b80821115610b3a5760008155600101610b3f565b600060208284031215610b6557600080fd5b5035919050565b6000815180845260005b81811015610b9257602081850181015186830182015201610b76565b81811115610ba4576000602083870101525b50601f01601f19169290920160200192915050565b6001600160a01b038816815260e060208201819052600090610bdd90830189610b6c565b8281036040840152610bef8189610b6c565b90508660608401528560808401528460a084015282810360c0840152610c158185610b6c565b9a9950505050505050505050565b634e487b7160e01b600052604160045260246000fd5b600082601f830112610c4a57600080fd5b813567ffffffffffffffff80821115610c6557610c65610c23565b604051601f8301601f19908116603f01168101908282118183101715610c8d57610c8d610c23565b81604052838152866020858801011115610ca657600080fd5b836020870160208301376000602085830101528094505050505092915050565b60008060008060008060c08789031215610cdf57600080fd5b86356001600160a01b0381168114610cf657600080fd5b9550602087013567ffffffffffffffff80821115610d1357600080fd5b610d1f8a838b01610c39565b96506040890135915080821115610d3557600080fd5b610d418a838b01610c39565b9550606089013594506080890135935060a0890135915080821115610d6557600080fd5b50610d7289828a01610c39565b9150509295509295509295565b600081518084526020808501945080840160005b83811015610db85781516001600160a01b031687529582019590820190600101610d93565b509495945050505050565b600081518084526020808501945080840160005b83811015610db857815187529582019590820190600101610dd7565b60006020808301818452808551808352604092508286019150828160051b87010184880160005b83811015610ef257888303603f19018552815180516001600160a01b0316845261012088820151818a870152610e5282870182610b6c565b9150508782015185820389870152610e6a8282610b6c565b606084810151908801526080808501519088015260a0808501519088015260c080850151888303828a01529193509150610ea48382610b6c565b9250505060e08083015186830382880152610ebf8382610d7f565b925050506101008083015192508582038187015250610ede8183610dc3565b968901969450505090860190600101610e1a565b509098975050505050505050565b604080825283519082018190526000906020906060840190828701845b82811015610f425781516001600160a01b031684529284019290840190600101610f1d565b50505083810382850152610f568186610dc3565b9695505050505050565b634e487b7160e01b600052601160045260246000fd5b60008219821115610f8957610f89610f60565b500190565b600181811c90821680610fa257607f821691505b602082108114156107dc57634e487b7160e01b600052602260045260246000fd5b6000600019821415610fd757610fd7610f60565b5060010190565b600082821015610ff057610ff0610f60565b500390565b634e487b7160e01b600052603260045260246000fdfea2646970667358221220c4506e2f39fde7c65087598840af96959f9c6d1b481dad8087449f9ad3e92ad064736f6c63430008090033",
  "linkReferences": {},
  "deployedLinkReferences": {}
}